:03000000020C0BE4
:0C0C0B00787FE4F6D8FD75817E020C5263
:100C9700014C000166000162000B703F065B4F6666
:100CA7006D7D077F67000264000002690000026B28
:100CB7000000024A0000026700000209000010500D
:100CC700000000000000000000000000000000001D
:100CD700103A0000000000000000000000000001C2
:100CE70000001E0C000000000000000000000000D3
:100CF70000000000000000000000000000000000ED
:100D07000000102A000000000000000000000000A2
:040D170000000000D8
:1002D900C2A0120F38E4F580E551653B7004E55082
:1002E900653A7054E553653D7004E552653C7048C4
:1002F900E55765417004E5566540703CE55965432D
:100309007004E55865427030E55D65477004E55C49
:1003190065467024E55FB5491FE55EB5481AE4F501
:100329006230B314B2957F197E00120F54B2957FD3
:10033900197E00120F5480E912086E120B6CE54EFB
:1003490064017094E54D14602A24F9700302045382
:1003590024086003020539C28CE4F54FF561F563A1
:10036900F509F50A120D93C2A2C2A3C2A485708031
:10037900020539754C01D28C120D93120D1C120B0A
:100389006CE54D6402702FC3E50A940FE5099400EA
:100399005024E54E6401701EC28C120F11E50A2526
:1003A900E0240CF8A60608A607D28C050AE50A700F
:1003B900020509E4F54EAF4D7E00EF64037013E5C5
:1003C9004E6401700DF54C308C03020539D28C0254
:1003D9000539EF4E7010E54E6401700A858C088569
:1003E9008A0BC28CF54EE54D64017016E54E640129
:1003F900701085088C850B8A308E02C28ED28CE4EF
:10040900F54EE54D64046003020381D3E50A9400C7
:10041900E50994005003020381E54E64016003027B
:100429000381E50A150A70021509858C08858A0B6E
:10043900308C02C28CE50A25E0240CF8E6FE08E6B9
:10044900FF120E6BE4F54E020381C28C754F03E473
:10045900F561F563756601120D93120D1CE4F54EF5
:10046900120D93120D1C120B6CE54E640160030210
:10047900051DE54D24F7B40700400302051D90044E
:100489009575F003A4C58325F0C583730204AA02F8
:1004990004B80204C60204FB0204D40204E1020403
:1004A900EEE56364177004F563806905638065E5AB
:1004B9006164177004F561805B05618057E54F64DD
:1004C900177004F54F804D054F8049E56370057538
:1004D900631780401563803CE5617005756117807D
:1004E900331561802FE54F7005754F178026154F1D
:1004F9008022D28C308C10E4F54E120B6CE54E64E0
:100509000170F1C28CF566E4F54FF561F563120DE2
:1005190093120D1CE5666003020466F54E308C0EDD
:10052900120D1C120B6CE54E640170F1F54ED28C64
:06053900E4F54E0202E1B0
:040F50007FE87E03B5
:0B0F5400EF1FAC0670011E4C70F6226F
:100F3800758911758CFC758A67758DFC758B67D200
:080F48008CD2AFD2A9D2AB227A
:100A12008E7D8F7EE57E457D6010E57E6403457D9B
:100A22006008E57E6406457D7035E57E25E024504C
:100A3200F8E6FE08E6640A4E7025AF7EEF25E02454
:100A420050F8E4F608F6EF25E02452F80806E61816
:100A5200700106E57E2401FFE4357DFE120A12E5EF
:100A62007E6401457D6008E57E6404457D7035E560
:100A72007E25E02450F8E6FE08E664064E7025AFB7
:100A82007EEF25E02450F8E4F608F6EF25E0245442
:100A9200F80806E618700106E57E2402FFE4357DBB
:100AA200FE120A12E55D6404455C7010E55F6402A3
:0D0AB200455E7008F55EF55FF55CF55D22B0
:100ABF008E7B8F7CE57C457B6010E57C6403457BFA
:100ACF006008E57C6406457B7035E57C25E0243ABB
:100ADF00F8E6FE08E6640A4E7025AF7CEF25E024A9
:100AEF003AF8E4F608F6EF25E0243CF80806E61895
:100AFF00700106E57C2401FFE4357BFE120ABFE599
:100B0F007C6401457B6008E57C6404457B7035E5BA
:100B1F007C25E0243AF8E6FE08E664064E7025AF21
:100B2F007CEF25E0243AF8E4F608F6EF25E0243EC2
:100B3F00F80806E618700106E57C2402FFE4357B11
:100B4F00FE120ABFE547640445467010E54964028A
:0D0B5F0045487008F548F549F546F5472270
:10068E008E7B8F7CE55145507034E5534552702E6C
:10069E00E55745567028E55945587022E55D455C8D
:1006AE00701CE55F455E7016F556755709F5507569
:1006BE005109F558755905F5527553058046E57C77
:1006CE00457B6010E57C6403457B6008E57C640631
:1006DE00457B704DAF7CEF25E02450F8E6FC08E634
:1006EE00C39401EC9400400EEF25E02450F808E688
:1006FE00161870011622E55F455E7013E57C6406E0
:10070E00457B700BF55C755D03F55E755F0222E54A
:10071E007C25E02450F87600087609E57C240180DB
:10072E003AAF7CEF25E02450F8E6FC08E6C39401CE
:10073E00EC9400400EEF25E02450F808E6161870F1
:10074E002E1622E57C25E02450F87600087605E585
:10075E007C6407457B600CE57C2402FFE4357BFE60
:10076E0002068EE57C25E02450F8760008760122FC
:10077E008E7B8F7CE53B453A7034E53D453C702ED3
:10078E00E54145407028E54345427022E547454620
:10079E00701CE54945487016F540754109F53A75E6
:1007AE003B09F542754305F53C753D058046E57CF4
:1007BE00457B6010E57C6403457B6008E57C640640
:1007CE00457B704DAF7CEF25E0243AF8E6FC08E659
:1007DE00C39401EC9400400EEF25E0243AF808E6AD
:1007EE00161870011622E54945487013E57C64061B
:1007FE00457B700BF546754703F54875490222E5B2
:10080E007C25E0243AF87600087609E57C24018000
:10081E003AAF7CEF25E0243AF8E6FC08E6C39401F3
:10082E00EC9400400EEF25E0243AF808E616187016
:10083E002E1622E57C25E0243AF87600087605E5AA
:10084E007C6407457B600CE57C2402FFE4357BFE6F
:10085E0002077EE57C25E0243AF876000876012230
:10086E00E4F54AF54BF54D30B103020947C28CD27F
:10087E008E120F5030B10302094730B1FD120F50E6
:10088E00B2A0054DE54D6407603F20B118120F5020
:10089E0020B11230B1FDB2A0054DE54D64047005D6
:1008AE00F54A754B0120B00E120F5020B00830B033
:1008BE00FDB2A0120E0020B2CB120F5020B2C530E6
:1008CE00B2FDB2A0120EA880BBD28CC28EAE5EAFAD
:1008DE005F7C007D0A120948E55D2FFFE55C3EFE58
:1008EE007D3C120948E5572FFBE5563EFAAE58AF50
:1008FE00597D0A120948EF2BFBEE3AFAAE48AF4982
:10090E00120948E5472FFFE5463EFE7D3C12094899
:10091E00E5412FF582E5403EF583AE42AF437D0AB9
:10092E00120948EF2582FFEE3583FED3EF9BEE9A38
:0A093E00400475620122E4F5622214
:100E0000E54D24FE601D14602814603414603E1407
:100E10006049240570540551E55170020550E4FF06
:100E2000FE801A0557E557700205567F037E008045
:100E30000C055DE55D7002055C7F067E00020A120E
:100E4000053BE53B7002053AE4FFFE801A0541E5EB
:100E500041700205407F037E00800C0547E5477026
:0B0E60000205467F067E00120ABF223A
:100EA800E54D24FE601514601814601C14601E14AF
:100EB800602124057024E4FFFE800A7F037E008001
:100EC800047F067E0002068EE4FFFE800A7F037E12
:0B0ED8000080047F067E0012077E22CF
:03000B0002001ED2
:10001E00C0E0C0F0C083C082C0D075D000C000C0A8
:10002E0001C002C003C004C005C006C007E54C6095
:10003E0003020147E5666003020147758CFC758A71
:10004E00670565E56570020564B4E819E564B403F7
:10005E00147564007565000551E55170020550E494
:10006E00FFFE120A12758000E56960030202BEE50A
:10007E006A14604024FE605D14607324FE700302F7
:10008E00011D147003020136240760030202BEC272
:10009E00A2C2A3C2A474702551F8E6F580E562648D
:1000AE00017003D38001C39287056AE56A705D050E
:1000BE00690202BED2A2C2A3C2A474702553F8E68E
:1000CE00F580056AE56A70020569056AE56A7002DF
:1000DE0005690202BED2A2D2A3C2A474702557F83B
:1000EE00E6F580056AE56A700205690202BEC2A2E3
:1000FE00C2A3D2A474702559F8E6F580056AE56AA4
:10010E0070020569056AE56A700205690202BEC2DF
:10011E00A2D2A3D2A47470255DF8E6F580056AE537
:10012E006A700205690202BED2A2D2A3D2A4747072
:10013E00255FF8E6F580020282E54C600302028A32
:10014E00E5666401600302028A758CFC758A670598
:10015E0065E5657002056464E87004E56464037027
:10016E004FF564F565AF4FFEEF700EE561700AE571
:10017E00637006F566C28C8034C3EF9401EE648022
:10018E0094804004154F8025C3E5619401748094DA
:10019E00804007754F3B15618013C3E5639401746E
:1001AE008094804008754F3B75613B1563120D932B
:1001BE00758000E56960030202BEE56AB40800407E
:1001CE00030202BE9001D9F82828730201F102023F
:1001DE000502021902022D020240020253020266B9
:1001EE00020279C2A2C2A3C2A4852B80056AE56A67
:1001FE00700205690202BED2A2C2A3C2A4852D80DE
:10020E00056AE56A700205690202BEC2A2D2A3C2E5
:10021E00A4758040056AE56A700205690202BED2C5
:10022E00A2D2A3C2A4853180056AE56A700205696F
:10023E00807EC2A2C2A3D2A4853380056AE56A700D
:10024E00020569806BD2A2C2A3D2A4758040056A52
:10025E00E56A700205698058C2A2D2A3D2A485377E
:10026E0080056AE56A704905698045D2A2D2A3D29B
:10027E00A4853980756900756A008034758CD875CF
:10028E008AF0054FC3E54F946474809480402175C5
:10029E004F000561E561943C748094804012756155
:1002AE00000563E563943C7480948040037563009D
:1002BE00D007D006D005D004D003D002D001D00094
:0B02CE00D0D0D082D083D0F0D0E0323E
:03001B0002053F9C
:10053F00C0E0C0F0C083C082C0D075D000C000C082
:10054F0001C002C003758DFC758B67E54B454A7082
:10055F000EE566700AF56D756E00756F5080097542
:10056F006D00756E00756F3A758000E56B60030264
:10057F00067BE56C14603E24FE6065147003020672
:10058F001124FE700302063B14700302065D24075C
:10059F00600302067BC2A2C2A3C2A4AB6DAA6EA95E
:1005AF006F1209AF2470F8E6F580056CE56C702DBD
:1005BF00056B02067BD2A2C2A3C2A4AB6DAA6EA921
:1005CF006F9000021209DA2470F8E6F580056CE5E9
:1005DF006C7002056B056CE56C7002056B02067B97
:1005EF00D2A2D2A3C2A4AB6DAA6EA96F90000612BD
:1005FF0009DA2470F8E6F580056CE56C7002056B7E
:10060F00806AC2A2C2A3D2A4AB6DAA6EA96F9000DA
:10061F00081209DA2470F8E6F580056CE56C7002B3
:10062F00056B056CE56C7044056B8040C2A2D2A3CC
:10063F00D2A4AB6DAA6EA96F90000C1209DA2470C8
:10064F00F8E6F580056CE56C7022056B801ED2A272
:10065F00D2A3D2A4AB6DAA6EA96F90000E1209DAC5
:10066F002470F8E6F580756B00756C00D003D0022E
:0F067F00D001D000D0D0D082D083D0F0D0E032E4
:100D1C00E4FDEDC3940874809480506AEDB408002F
:100D2C00504D900D35F8282873020D4D020D5102CF
:100D3C000D59020D5D020D65020D69020D71020D5A
:100D4C0075C2A28002D2A2C2A3C2A48022C2A28077
:100D5C0002D2A2D2A3C2A48016C2A28002D2A2C284
:100D6C00A3D2A4800AC2A28002D2A2D2A3D2A4EDA2
:100D7C0025E0242AF808E6F5807F647E00120F54E3
:060D8C00E4F5800D808CEF
:010D9200223E
:100D9300E54F75F00A84747025F0F8E6752A00F5BE
:100DA3002BE54F75F00A842470F8E6752C00F52DB9
:100DB300752E00752F40E56175F00A84747025F077
:100DC300F8E6753000F531E56175F00A842470F8B2
:100DD300E6753200F533753400753540E56375F01B
:100DE3000A84747025F0F8E6753600F537E5637507
:0D0DF300F00A842470F8E6753800F5392206
:100B6C00E4F57BF57C75900FAF90EF640F7003028A
:100B7C000C0A120EE3057CE57C7002057BE4F57B28
:100B8C00F57CAF90EF640F6075754E0175900FAFEB
:100B9C0090EF24F5601024FE60111460132407708C
:100BAC0012E4F54D800D754D018008754D028003E2
:100BBC00754D037590F0120EE3AF90EF2450600C5E
:100BCC0024E0600C24F0600C2470800E7404800609
:100BDC0074088002740C254DF54DC3E57C94F4E546
:100BEC007B94015014AF90EF64F0600D120EE3058E
:0E0BFC007CE57C70E5057B80E1E4F57BF57C13
:010C0A0022C7
:100EE3007F01EFD394007480948040217E26EED35B
:100EF30094007480948040127D82EDD394007480BA
:0D0F0300948040031D80F31E80E41F80D504
:010F100022BE
:100F1100E4254FFBE433FAE56175F064A42BFBE5AE
:100F2100F03AFAAF637E007C277D10120948EF2B5F
:060F3100FBEE3AFEAF03E7
:010F37002297
:100E6B00AB07AA067C277D1012095A8F637E007C84
:100E7B00277D10120948C3EB9FFFEA9EFE7C007D85
:100E8B006412095A8F61E563C454F0FEC3EB9EFFF5
:0D0E9B00E56175F064A4FEC3EF9EF54F22E3
:100C17000202D9E493A3F8E493A34003F68001F218
:100C270008DFF48029E493A3F85407240CC8C333DE
:100C3700C4540F4420C8834004F456800146F6DFAD
:100C4700E4800B0102040810204080900C97E47E9A
:100C5700019360BCA3FF543F30E509541FFEE493A2
:100C6700A360010ECF54C025E060A840B8E493A369
:100C7700FAE493A3F8E493A3C8C582C8CAC583CA94
:100C8700F0A3C8C582C8CAC583CADFE9DEE780BE4C
:010D1B0000D7
:10094800EF8DF0A4A8F0CF8CF0A428CE8DF0A42EC3
:02095800FE227D
:10095A00BC000BBE0029EF8DF084FFADF022E4CC81
:10096A00F875F008EF2FFFEE33FEEC33FCEE9DEC4A
:10097A00984005FCEE9DFE0FD5F0E9E4CEFD22ED90
:10098A00F8F5F0EE8420D21CFEADF075F008EF2FDA
:10099A00FFED33FD4007985006D5F0F222C398FDCB
:0509AA000FD5F0EA2268
:1009AF00BB010A89828A83E0F5F0A3E02250068713
:1009BF00F009E71922BBFE07E3F5F009E3192289D5
:0B09CF00828A83E493F5F07401932208
:1009DA00BB0110E58229F582E5833AF583E0F5F05B
:1009EA00A3E0225009E92582F886F008E622BBFE38
:1009FA000AE92582F8E2F5F008E222E5832AF5837E
:080A0A00E993F5F0A3E9932242
:00000001FF
